:020000040800F2
:10000000A0E901208DDB00083D0600083F0600083E
:1000100043060008470600084B06000800000000E1
:100020000000000000000000000000004F06000873
:10003000510600080000000087730208CD1A01086D
:10004000A7DB0008A7DB0008A7DB0008E59E000887
:10005000A7DB0008A7DB0008A7DB0008A7DB000878
:10006000A7DB0008A7DB0008A7DB0008A7DB000868
:10007000A7DB0008A7DB0008A7DB0008A7DB000858
:10008000A7DB0008A7DB0008A7DB0008A7DB000848
:10009000A7DB0008A7DB0008A7DB0008A7DB000838
:1000A000A7DB0008A7DB0008A7DB0008A7DB000828
:1000B000A7DB000899DA0008A7DB0008A7DB000827
:1000C000A7DB0008A7DB0008A7DB0008A7DB000808
:1000D000A7DB0008B71C0108A7DB0008A7DB0008A6
:1000E000A7DB0008C19E0008A7DB0008A7DB00080B
:1000F000A7DB0008A7DB0008A7DB0008A7DB0008D8
:10010000A7DB00085D940008A7DB0008A7DB000858
:10011000A7DB0008A7DB0008A7DB0008A7DB0008B7
:10012000A7DB0008A7DB0008A7DB0008A7DB0008A7
:10013000A7DB0008A7DB0008A7DB0008A7DB000897
:10014000A7DB0008A7DB0008A7DB0008395302087B
:10015000A7DB0008A7DB0008A7DB0008A7DB000877
:10016000A7DB0008A7DB0008A7DB0008A7DB000867
:10017000A7DB0008A7DB0008A7DB0008A7DB000857
:10018000A7DB0008A7DB000800F002F800F0B2F8D7
:100190000AA090E8000C82448344AAF10107DA45E2
:1001A00001D100F0A7F8AFF2090EBAE80F0013F082
:1001B000010F18BFFB1A43F001031847C8270900B5
:1001C000E82709000A444FF0000C10F8013B13F037
:1001D000070408BF10F8014B1D1108BF10F8015BA0
:1001E000641E05D010F8016B641E01F8016BF9D193
:1001F00013F0080F1EBF10F8014BAD1C0C1B09D1EA
:100200006D1E58BF01F801CBFAD505E014F8016B5B
:1002100001F8016B6D1EF9D59142D6D370470000ED
:100220000023002400250026103A28BF78C1FBD8FF
:10023000520728BF30C148BF0B6070476E2926F0B7
:100240000980702925F06384662939F0C086652904
:1002500039F0BD86672939F0BA866129AFF300808D
:1002600003681B0A28BF41F08001692925F09683A5
:10027000642925F09383752925F090836F2926F052
:10028000CA80782925F02F84E92925F0C383E42941
:1002900025F0C083F52925F0BD83EF2926F0C7801E
:1002A000F82925F02E840368DB0928BF41F080017E
:1002B000632926F01280732926F01780E32926F09F
:1002C0003E83F32926F04383002070471FB539F0A1
:1002D00074FE26F0B5FB04000020002139F046F939
:1002E000401C60600020002139F02AF9E0601FBD49
:1002F00010B510BD26F076FB1146FFF7E7FF00F0C2
:1003000056F826F053FC03B4FFF7F2FF03BC11F0DC
:100310006FFC000030BF72B6704762B6704780F362
:100320000888704710B586B000249D490022C8682F
:100330009CA114F079FE04AA05A99AA012F0AAF9CA
:10034000044654B998A0059904F064FC9CA0049953
:1003500004F060FCA0A004F05DFC11E09F48006880
:1003600008B9012000E000209C49086003A808218A
:1003700000230122CDE900101946184620F07FFB2A
:10038000974822F007FA0028E8D1944908604FF412
:10039000FA7011F000FC01209249C1F8A802002275
:1003A00080A1104614F040FE204606B010BD8AB071
:1003B0000024A82011F096FB4FF4A0600DF006FC7D
:1003C0004FF4E13011F021FC0AF01DFC45F25840D9
:1003D0000AF004FC09F014F904F0E4FE09F040FB13
:1003E00009F0AEFB09F0EAFB09F0A0FC142001F0D3
:1003F00037F9532140F2F3100DF029FB64217A48BC
:100400000EF04DFE04F0EEFE002011F0B4FC0120D1
:1004100011F0B1FC022011F0AEFC12F09FF860491F
:100420000122086871A114F0FFFD5D4901224868AE
:100430006FA114F0F9FD282001F012F918E06DA069
:1004400010210B46C822CDE900105A211E200DF0C4
:100450005CFAC82011F09FFB4FF6FF705623E6228E
:100460005A2100901E200CF0F5FFC82011F093FBDC
:1004700007F0ADFF0028E2D13C2001F0F1F818E0D0
:1004800060A010210B46C822CDE9001046211E2095
:100490000DF03BFA55A310225A211E2011F065FEE3
:1004A0004FF4FA6011F077FB4FF6FF700AF096FBFD
:1004B00003E012F014F80028E2D100BF502001F050
:1004C000CFF806F058FC09A819F0CCFD00BF00BF1A
:1004D00000BF18F02DF9044600BF00BF4C4800785B
:1004E000401C4B49087000BF00BF204618F024F99B
:1004F00000BF00BF00BF4748474B484A012100905A
:10050000374823F0DFF8642001F0AAF809A8032196
:1005100000220592CDE906210890104680210C2288
:100520003F4BCDE90132CDE90310032000233D4AC2
:100530003DA100903F481EF007FB00BF00BF00BF79
:1005400018F0F6F8044600BF00BF31480078401E9E
:100550002F49087008460078A0B93748008800285D
:1005600009DD00BF00BF204618F0E6F800BF00BF5D
:100570001AF08AFB0DE000BF00BF204618F0DCF83F
:1005800000BF06E000BF00BF204618F0D5F800BF4E
:1005900000BF00BF09A81AF02EF800BFFEE7000058
:1005A00030B80120333A000055204469736B205461
:1005B0006F74616C2053697A653A2564204D42005E
:1005C00055204469736B2020467265652053697A13
:1005D000653A2564204D420033000000A882424263
:1005E0000C0F00200080424200040040303A00001E
:1005F000313A000053442043617264204661696CC3
:1006000065642100466F6E74204572726F7221001E
:10061000D40200208803002070030020780E002000
:10062000780C0020D34D00087374617274207461DB
:10063000736B0000B40B002098020020704700BFCD
:10064000FEE700BFFEE700BFFEE700BFFEE7704722
:10065000704700000CB500200190009076480068BB
:1006600040F480307449086000BF7348006800F4AB
:10067000003000900198401C0190009818B9019832
:10068000B0F5A04FF1D16C48006800F4003010B113
:100690000120009001E0002000900098012846D140
:1006A00065484030006840F0805063494031086040
:1006B0006248006840F44040604908605E48083085
:1006C00000685D49083108600846006840F4004051
:1006D00008600846006840F4A05008605848091FA8
:1006E0000860081F006840F08070091F086000BFA4
:1006F0005148006800F000700028F9D040F2057001
:10070000504908604C480830006820F003004A490E
:10071000083108600846006840F00200086000BF29
:1007200045480830006800F00C000828F8D10CBDDE
:1007300010B54548006840F47000434908603E48E1
:10074000006840F001003C49086000203A49083147
:100750000860394800683D490840374908603C480E
:10076000091D0860081F006820F48020091F086028
:10077000002031490C310860FFF76CFF4FF000603A
:1007800031498039086010BD70B500200022022375
:1007900000240221284D08352D6805F00C0020B1F9
:1007A000042806D0082834D107E02A4D2A4E3560A7
:1007B00033E02A4D284E35602FE01F4D2D1D2D684A
:1007C000C5F380541C4D2D1D2D6805F03F0154B11B
:1007D000224DB5FBF1F5184E361D3668C6F3881666
:1007E00005FB06F209E01B4DB5FBF1F5124E361D77
:1007F0003668C6F3881605FB06F20F4D2D1D2D68D1
:10080000C5F301456D1C6B00B2FBF3F5124E35606C
:1008100003E0104D104E356000BF00BF064D083597
:100820002D68C5F303150E4E705D0B4D2D68C54048
:10083000094E356070BD0000003802400070004075
:1008400008544007003C024088ED00E0FFFFF6FE40
:10085000103000240024F4000000002000127A0070
:100860000400002010B551482AF0D1FA04202AF0E3
:1008700069FB78239A001946002029F08DF9C823D6
:100880004FF4F0721946002029F086F94FF48C736A
:100890004FF4F0721946002029F07EF910BDF0B532
:1008A00087B00446676820681D285BD004DC0128F7
:1008B00009D00F2872D123E0262854D0A0F21310BB
:1008C00000286BD143E038462EF010FE38482AF05D
:1008D000CDFA002037492823CDE90230CDE90410B4
:1008E00041214FF40062CDE9001333A1384601F0F5
:1008F00052F900230A22194638462DF0C9FE00BFDE
:1009000001F0B8F8FFF7AEFF01F079F828482AF0B7
:10091000ADFA4122E62129A028F044FF7D22F021F2
:100920002948006828F03EFF9B22F02127480068F4
:1009300028F038FFCD22F0212548006828F032FF4A
:10094000EB22F0212348006828F02CFF2AE001F078
:1009500056F838462EF0EAFB4FF47A71E0682EF034
:10096000F8FC1FE01EE0A0682EF0E0F80546E668FF
:10097000B5F5006F0FD1012E02D0022E09D100E093
:1009800007E001F0AAF801F03AF8134801F088F8FE
:1009900000BF00BF00BF00BF04E0FFE720462DF00E
:1009A0005DFF00BF00BF07B0F0BD000000FFBF004B
:1009B0005CD40808CC0A050820000000B9D8D3DAB6
:1009C000B1BEBBFA00000000140000201800002097
:1009D0001C00002020000020193D00082DE9F041F6
:1009E0000746002600240025FCA1384625F05EF9C4
:1009F000054636E00322FAA1284625F0CCF928B9AD
:100A0000F6A1002025F052F905462AE0F54840F805
:100A10002650761CF1A1002025F048F90546032058
:100A200096FBF0F100FB1160D8B9EE480068EE4982
:100A300001EB04110860EB484068EB4901EB04113D
:100A40004860E84880680078E74901EB04110872C3
:100A5000641CE548C460601EE34901EB0010C460FB
:100A60000026002DC6D1BDE8F0812DE9F041804679
:100A7000002600270122DD480168DD4814F0FFFA56
:100A800004462CB1DBA004F0C5F82046BDE8F08197
:100A900000BF00BF00BF17F04BFE074600BF00BFFE
:100AA000DF480078401CDE49087000BF00BF3846B0
:100AB00017F042FE00BF00BF00BF00BFD94B0122AC
:100AC0002946CB4814F039FC044628780A2800D17E
:100AD000761CD44800680028F0D100BF00BF00BFDA
:100AE00000BF00BF17F024FE074600BF00BFCC4880
:100AF0000078401ECA49087008460078A0B9CA4864
:100B00000088002809DD00BF00BF384617F014FE3A
:100B100000BF00BF1AF0B8F80DE000BF00BF3846B4
:100B200017F00AFE00BF06E000BF00BF384617F00E
:100B300003FE00BF00BF00BFAD4814F02AFF3046DF
:100B4000A4E72DE9F041804600260122A74801686C
:100B5000A74814F094FA0446A548008A85B2A44830
:100B600014F017FF0122A1480168A14814F087FA88
:100B7000044624B1ADA004F04DF8BDE8F08129464B
:100B8000012011F0BEF9074600BF00BF00BF17F0FB
:100B9000CFFD064600BF00BFA1480078401CA04919
:100BA000087000BF00BF304617F0C6FD00BF00BF91
:100BB00000BF00BF9B4B4FF4805239468C4814F065
:100BC000BCFB0446974800680028F3D100BF00BF73
:100BD00000BF00BF00BF17F0ABFD064600BF00BF5F
:100BE0008F480078401E8E49087008460078A0B9EA
:100BF0008D480088002809DD00BF00BF304617F08F
:100C00009BFD00BF00BF1AF03FF80DE000BF00BF22
:100C1000304617F091FD00BF06E000BF00BF304630
:100C200017F08AFD00BF00BF00BF714814F0B1FE8D
:100C30003846FFF7D3FE3946012011F052F900BFC4
:100C40009BE72DE9F05F4FF064090024A3460020E4
:100C5000FFF70BFF07464F4502DDA7EB090700E052
:100C60000027012261480168614814F008FA8246B1
:100C70005F48008A1FFA80F85D4814F08AFE01225E
:100C80005A4801685A4814F0FAF98246BAF1000F3E
:100C900004D066A003F0BEFFBDE8F09F00BF00BF18
:100CA00000BF17F045FD834600BF00BF5C480078D9
:100CB000401C5B49087000BF00BF584617F03CFD60
:100CC00000BF00BF00BF002610E0564B012229469E
:100CD000474814F032FB824628780A2806D1444857
:100CE000046B2246E31714F067FE761CBE42ECDB71
:100CF00000BF00BF00BF17F01BFD834600BF00BF51
:100D000047480078401E4649087008460078A0B958
:100D100045480088002809DD00BF00BF584617F08D
:100D20000BFD00BF00BF19F0AFFF0DE000BF00BF1B
:100D3000584617F001FD00BF06E000BF00BF58464F
:100D400017F0FAFC00BF00BF00BFA8EB04010120B0
:100D500011F0D7F8054600BF00BF00BF17F0E8FC50
:100D6000834600BF00BF2E480078401C2C49087005
:100D700000BF00BF584617F0DFFC00BF00BF00BF38
:100D800000BF284B4FF480522946194814F0D5FA79
:100D90008246244800680028F3D100BF00BF00BF8E
:100DA00000BF00BF17F0C4FC834600BF00BF1C4853
:100DB0000078401E1A4908700846007868B91A4839
:100DC000008800283ADD00BF00BF584617F0B4FC89
:100DD00000BF00BF19F058FF3EE036E040000000C1
:100DE0000D0A0000081700201C170020DC0100205D
:100DF000B8140020D4DABBF1C8A1C8D5D6BECEC481
:100E0000BCFED7DCD0D0CAFDB5C4CAB1BAF2CEC4DC
:100E1000BCFEB4F2BFAACAA7B0DC0D0A00000000F5
:100E2000D40200203002002098020020C8D5D6BE8F
:100E3000B6C1C8A1B4EDCEF30D0A000000BF00BFDB
:100E4000584617F079FC00BF06E000BF00BF5846C7
:100E500017F072FC00BF00BF00BFF74814F099FD07
:100E60002846FFF7BBFD2946012011F03AF800BFE4
:100E700012E770B505460E46F04800EB0510007A03
:100E80003038C4B226B1012E25D0022E6AD145E0F9
:100E9000012C04D0022C07D0032C0ED109E06FF0F6
:100EA0007F4029F0A9FF0DE04FF6FF7029F0A4FF65
:100EB00008E0FF2029F0A0FF04E06FF07F4029F058
:100EC0009BFF00BF00BFA8234FF4CC72702100200D
:100ED00028F0B0F94AE0012C04D0022C07D0032CF2
:100EE0000ED109E06FF07F4029F086FF0DE04FF64C
:100EF000FF7029F081FF08E0FF2029F07DFF04E06A
:100F00006FF07F4029F078FF00BF00BFE4234FF46B
:100F1000CC72AC21002028F08DF927E0012C04D000
:100F2000022C07D0032C0ED109E06FF07F4029F08E
:100F300063FF0DE04FF6FF7029F05EFF08E0FF2031
:100F400029F05AFF04E06FF07F4029F055FF00BF01
:100F500000BF4FF490734FF4CC72E821002028F0CA
:100F600069F903E0B6A003F055FE00BF00BF70BDF5
:100F70007FB504460025BB4829F078FF002029F002
:100F800046FF29462046FFF774FFAC4901EB0411E8
:100F900073220868E62128F005FCA84901EB04113A
:100FA00091224868E62128F0FDFB691C601CFFF7D0
:100FB00060FFA24A611C02EB0111AF220868E62122
:100FC00028F0F0FB9D4A611C02EB0111CD2248681C
:100FD000E62128F0E7FBA91CA01CFFF74AFF974A6F
:100FE000A11C02EB0111EB220868E62128F0DAFBD4
:100FF000924AA11C02EB011140F209124868E62155
:1010000028F0D0FB8D48C06897A3621C97A1009080
:1010100001A824F05DFC4122E62196A028F0C2FB45
:10102000864800EB0410C06830B1C3224FF4DC7175
:1010300001A828F0B7FB05E0C3224FF4DC7190A0B3
:1010400028F0B0FB002004B070BD10B58D4829F029
:10105000DEFE042029F076FF6E234FF4F07219466D
:10106000002028F099FDAA234FF4F07219460020C1
:1010700028F092FDE6234FF4F0721946002028F084
:101080008BFD4FF491734FF4F0721946002028F055
:1010900083FD4FF491734FF4CD726E21104628F00A
:1010A0007BFD10BDF0B587B00446676820681D2839
:1010B00066D004DC012809D00F2870D14AE0262828
:1010C0005FD0A0F213100028F7D14EE038462EF082
:1010D0000DFA644829F0CAFE0020FFF7B2FD002097
:1010E00069491423CDE90230CDE904108221CDE90C
:1010F00000134FF4D77340F6010264A1384600F0A4
:101100004AFD002062491423CDE90230CDE90410E4
:10111000FF21CDE900134FF4D77340F602025BA123
:10112000384600F038FD00205A492823CDE9023026
:10113000CDE9041041214FF40062CDE9001353A121
:10114000384600F028FD00230A22194638462DF0C3
:101150009FFA00BF00F08EFCFFF777FF00F04FFC16
:101160004D480068FFF704FF63E000F048FC384694
:101170002DF0DCFF4FF47A71E0682EF0EAF858E0C9
:1011800057E0A0682DF0D2FC0646E568B6F5006F82
:1011900038D0A6F6010018B1012844D117E044E088
:1011A000012D02D0022D10D100E00EE03A48006877
:1011B000401E3949086008460068002801DA00200E
:1011C000086038462DF0B2FF00BF00BF2BE0012DB4
:1011D00002D0022D14D100E012E02F480068401C1C
:1011E0002D4908601548C0680968884204DC134826
:1011F000C068401E2849086038462DF097FF00BFA0
:1012000000BF10E0012D02D0022D0AD100E008E05D
:1012100000202149086000F060FC204800F040FCFC
:1012200000BF00BF00BF00BF03E020462DF016FB4B
:1012300000BF00BF07B0F0BDB81400201C1700208D
:10124000BBE6D6C6B1A8BEAFC8D5D6BEB1B3BEB098
:10125000B2CECAFDD3D0CEF32CC7EBBCECB2E90DB5
:101260000A0000005CD408082F00000025642573E4
:1012700025640000B1A8BEAFC8D5D6BE00000000EE
:10128000302F300000FFBF0084A7050820000000B9
:1012900030A10508CC0A050828000020E740000816
:1012A000F0B587B0044667682068012808D00F2889
:1012B00032D0262856D0A0F2131000287ED146E066
:1012C00038462EF013F9934829F0D0FD00209249BA
:1012D0002823CDE90230CDE90410412140F6060271
:1012E000CDE900138DA1384600F055FC0020A02167
:1012F000BE227D23CDE90032CDE90210F02340F675
:10130000050287A1384600F0F1FB00230A221946A6
:1013100038462DF0BDF900BF00F0ACFB00F06FFBCC
:101320007C4829F0A3FD4122DC217FA028F03AFA75
:101330008048006828B1732264217FA028F032FA27
:1013400004E0732264217FA028F02CFA3AE000F038
:1013500056FB38462DF0EAFE4FF47A71E0682DF026
:10136000F8FF2FE0A0682DF0E1FB0646E568A6F641
:10137000050078B101281FD1012D02D0022D07D11F
:1013800000E005E000F0A9FB714800F089FB00BF18
:1013900000BF11E0012D03D0022D0BD101E00DE0C3
:1013A00008E06CA003F036FC06AA00216D481CF092
:1013B000D4FE00BF00BF00BF00BF03E020462DF0F9
:1013C0004DFA00BF00BF07B0F0BDF0B587B00446CE
:1013D00067682068012808D00F2841D0262857D0F8
:1013E000A0F2131000286ED147E038462EF07EF8A8
:1013F000484829F03BFD002047492823CDE9023029
:10140000CDE90410412140F60602CDE9001343A1C5
:10141000384600F0C0FB0020A021BE227D23CDE98C
:101420000032CDE9021032234FF400624EA138465B
:1014300000F05CFB0020A021BE227D23CDE900321C
:10144000CDE90210F02340F6010249A1384600F030
:101450004DFB00230A22194638462DF019F900BF2A
:1014600000F008FB00F0CBFA424829F0FFFC4122D3
:10147000DC212DA028F096F949E000F0C0FA3846AA
:101480002DF054FE4FF47A71E0682DF062FF3EE0DB
:10149000A0682DF04BFB0646E568B6F5006F22D03C
:1014A000A6F6010080B105282BD1012D02D0022D16
:1014B00007D100E005E000F010FB2F4800F0F0FA43
:1014C00000BF00BF1DE01EE0012D02D0022D08D19B
:1014D00000E006E000F001FBAFF23B2000F0E0FA94
:1014E00000BF00BF0DE0012D02D0022D07D100E0AA
:1014F00005E006AA002121481CF02FFE00BF00BF16
:1015000000BF00BF03E020462DF0A8F900BF00BFD8
:1015100007B0F0BD5CD40808CC0A05082000000024
:10152000BFAACABC00000000CAFDBEDDB4ABCAE45D
:10153000000000002C00002055C5CC20B2E5C8EB0F
:101540000000000055C5CC20B0CEB3F6000000006E
:10155000CB130008CDCBB3F6C1D9BDE7C7F80D0A50
:1015600000000000584B0020C0B6D1C000000000B1
:1015700055C5CC00ECD40808FF3E0008304B0020D5
:1015800010B5044620680F281DD1644900200FF0D3
:1015900033FA634900200FF0C9FA00F030FA0F2245
:1015A000862160A028F0FEF85C49087802230F220B
:1015B000642128F04DF85949487802230F228C21E4
:1015C00028F046F803E020462DF048F900BF00BFA0
:1015D00010BD28F061FD01202DF0E6FD52482CF0F1
:1015E000B5F9524826F034FD4F482CF0AFF9504879
:1015F00026F008F94F4826F05BFA4F4826F0D4FA57
:101600004E482CF063FB4E482CF01AFC4D482BF052
:1016100067FA4D482CF06EFA4CA000F003FC5049DC
:10162000086050A000F0FEFB5249086052A000F094
:10163000F9FB5649086056A000F0F4FB58490860D1
:101640002DF040FA044657492DF0FDFE564800F0B3
:1016500027FA04E028F082FB0A2027F0C5FFF9E70B
:101660001FB504461F205149088051A0182114239A
:101670001A01CDE9001046211E200CF046F9642C19
:1016800001DC002C00DA1FBDFA234FF4CA72DC2102
:1016900063200BF08EFF4C4800684B49086037E030
:1016A00000204A4900900988C91C8AB24749098824
:1016B00088B2F923DD210BF0CDFE44480068C01C40
:1016C000424908600F2010F066FA4FF4784037491D
:1016D00008803D483EA1026802A824F0F9F845F2CE
:1016E0005840DB234FF4C872C821009008460BF025
:1016F000B1FE02A810210B46C822CDE90010114608
:10170000F0200CF002F930480068401C2E490860B7
:101710002D480068A042C3DD00BFB4E73C010020B3
:10172000400100203A000000C9D80208F17B0208FD
:1017300079750208B5790208FD7A020839DB0208DA
:1017400015DD0208A1CA02083DDA0208303A41500C
:10175000502F636F6E746975652E647461000000AC
:1017600054000020303A4150502F70617573652E3F
:101770006474610050000020303A4150502F73656E
:1017800074736D6C2E6474610000000058000020BA
:10179000303A4150502F73746F702E6474610000A2
:1017A0004C00002081150008AF1E0008E001002059
:1017B00053797374656D20697320737461727469F1
:1017C0006E67202100000000340000203800002057
:1017D000256425250000000001460020491E0F2930
:1017E0000AD2FE4A1268022A06D2FD4A02EBC10260
:1017F000FA4B1B6852F82300704770B504460D463B
:1018000028F07EFC28462169884729F04BFF70BDEF
:101810002DE9FC4107460C4615461E46DDF82080A2
:1018200020B2ADF8000028B2ADF8020030B2ADF839
:1018300004000FFA88F0ADF8060069463846FFF755
:10184000DCFFBDE8FC8170B504460D4628F058FC6D
:101850002846A168884729F025FF70BD0246E14867
:10186000416002600120DF4B986018464068032801
:1018700002DC1846006820B90020DA4B58600120CD
:1018800070470020FCE710B5D6484068002837D0E4
:10189000D5480068A0B3D54829F0E8FA002029F01F
:1018A000B6FAD0484068012804D0022807D003289F
:1018B0000ED109E06FF07F4029F09EFA0DE04FF65F
:1018C000FF7029F099FA08E0FF2029F095FA04E06A
:1018D0006FF07F4029F090FA00BF00BFC248006857
:1018E000401EC149086032234FF4AA720A218C209D
:1018F00027F0A0FCBB4914220868F02127F052FF12
:10190000B8488068012806D10A20B749086000203D
:10191000B449886009E0B448006830B90A20B24987
:1019200008600020AF494860086010BD70B52DED1B
:10193000048B14220521012008F0B2F9044600EEC0
:10194000104AB8EEC00A10EE100A38F0C5FA41ECA1
:10195000190B9FEDA70B53EC102B37F0C7FF41EC91
:10196000180B37F0FFFE04466FF07F4029F04FFA66
:101970002A234FF4D872122140F27F1028F056F932
:10198000012C17DCFF2029F042FA28234FF4C37200
:101990001421501F28F0FCF99748006898B10221E3
:1019A00096A0FFF75BFF012008F02EFB0020924974
:1019B000086008E0954829F01FFA002029F027FA6E
:1019C000934829F053FA00250AE0C5EB051606F501
:1019D000C87206F281102823142128F0D9F96D1C51
:1019E000A542F2DB894829F007FA002029F00FFA16
:1019F000874829F03BFA0020BDEC048B70BD10B580
:101A0000844900200EF0F8FF834900200FF08EF883
:101A10007E4829F0F1F9002029F0F9F97C4829F0F5
:101A200025FA3C23DA000021084627F003FC0A22AD
:101A30004FF4AA71794827F089FF0A22502178488B
:101A400027F084FF0F222C2176A027F0ABFE7149EE
:101A5000087802230F220A2127F0FAFD6D49487801
:101A600002230F22322127F0F3FDFFF75FFFFFF77C
:101A70000AFF10BD10B56C4829F0BEF9002029F00E
:101A8000C6F95A4829F0F2F9022029F079FA4FF400
:101A9000A0734FF4F0723D21002027F0CBFB10BD66
:101AA0002DE9FF410446002500262DF00BF80746DE
:101AB000002002214FF4A0734FF4F072CDE90071C1
:101AC000CDE90240314628462CF010FE5749086007
:101AD0000846006804B0BDE8F08110B553480068BE
:101AE0002CF0F4FE00205149086010BD2DE9F04FA4
:101AF00085B00446884615461E46DDE90FABDDF885
:101B00003890119F002002215B465246CDE9020524
:101B1000CDE900414946304625F0E2FC04901FB172
:101B20003846FFF759FE80464146049825F0C8FE26
:101B30002E49049825F07CFE3D4A0021049825F0AA
:101B400047FE3C4A0121049825F042FE3A4A022110
:101B5000049825F03DFE00221146049825F0F2FE7F
:101B600000220121049825F0EDFE002202210498B4
:101B700025F0E8FE314904982CF080FB01210498FF
:101B800025F04EFE284A0021049825F021FE0498F5
:101B900005B0BDE8F08F2DE9F04F85B004468946C9
:101BA00015461E46DDE90EABDDF84C80119F002086
:101BB0000221CDE90205CDE900415A4651463046A1
:101BC000109B25F08DFC04901FB13846FFF704FEF2
:101BD00081464946049825F073FE31E04400002018
:101BE0005C0000208C1A0020D4000020ECD30808F0
:101BF0006666666666664A3FD8000020B5E7B3D8D9
:101C0000B5E7C1BFB2BBD7E3000000001874CD0038
:101C100000FF08083C01002040010020ACD9050865
:101C200098C005083A00000000BFFF003C000020FB
:101C3000B8B8B800E0E0E000C0C0C000F0FF08089D
:101C40008E49049825F0F4FD0621049825F065FEE0
:101C50008B4A0021049825F0BBFD8A4A0121049893
:101C600025F0B6FD884A0221049825F0B1FD002236
:101C70001146049825F066FE00220121049825F003
:101C800061FE00220221049825F05CFE01210498E7
:101C900025F0C6FD049825F0FDFD7C4A002104983E
:101CA00025F096FD794A0121049825F091FDB8F1BF
:101CB000010F08D13220412300900021129A04988C
:101CC00025F076FD17E0B8F1020F08D1322000238D
:101CD00000901946129A049825F06AFD0BE06B49B2
:101CE000049825F0B9FD0020034600900146129AA1
:101CF000049825F05DFD049805B0BDE8F08F2DE94E
:101D0000F04F89B00446884615461E46DDE913AB00
:101D1000DDF84890159F002002215B465246CDE930
:101D20000205CDE900414946304625F0D9FB08902F
:101D3000169827F0D3F8079004A917A8079A27F058
:101D4000B7FA1FB13846FFF747FD8046414608986D
:101D500025F0B6FD4E49089825F06AFD484A002155
:101D6000089825F035FD474A0121089825F030FDF7
:101D7000454A0221089825F02BFD002211460898BB
:101D800025F0E0FD00220121089825F0DBFD00226E
:101D90000221089825F0D6FD0121089825F040FD84
:101DA000089825F077FD394A0021089825F010FDA4
:101DB000364A0121089825F00BFD0020034617AA9A
:101DC00001460090089825F0F3FC089809B0BDE89A
:101DD000F08F2DE9F04F85B004460D4616461F469C
:101DE000DDE90F9ADDF838800020022153464A468B
:101DF000CDE90365CDE900410290414638462CF01B
:101E0000CFF88346294658462CF03FF920495846DA
:101E10002CF024F91F4958462CF030FA584605B0EA
:101E2000BDE8F08F2DE9F0410446112221461A4801
:101E3000006813F024F9054615B10020BDE8F081D3
:101E400015490968086926F000FF0646304627F064
:101E500045F8074610480068104B394602690E489D
:101E6000006813F06AFA05460DB10020E6E70A485B
:101E7000006813F08EFD3046E0E70000ECD408085F
:101E8000B8B8B800E0E0E000C0C0C00000BFFF008C
:101E9000ECD30808F0FF08082802002034020020D4
:101EA0000020F849F84A126851F8220070472DE9DD
:101EB000F04391B005466F6828681D287ED004DC89
:101EC000012809D00F287AD106E1262878D0A0F27F
:101ED00013100028F7D142E138462DF007FBEB48FC
:101EE000006826F0FBFF804642460EA9E84827F02E
:101EF000DFF900202821FF23CDE900316E2340F6D1
:101F00000502CDE90210E3A13846FFF7EFFD0D9081
:101F10000D9825F0BFFC002000900023DC4A1946F4
:101F20000D9825F045FCDC48007818B1DA480078B7
:101F300002287DD10020D9492823CDE90230CDE9FE
:101F400004105521CDE90013E62340F60102D1A18A
:101F50003846FFF720FE07900020D1492823CDE91D
:101F60000230CDE904105521CDE900134FF4D273AE
:101F70004FF40062C7A13846FFF70DFE089000201D
:101F8000C6492823CDE90230CDE90410B921CDE9B5
:101F90000013E62340F60202C2A13846FFF7FBFD1C
:101FA00009900020BE492823CDE90230CDE9041074
:101FB000B921CDE900134FF4D27302E0F5E006E257
:101FC000F4E040F60302B7A13846FFF7E4FD0A90BB
:101FD000B548006826F082FF804642460EA9B34805
:101FE00027F066F900202821FF23CDE90031E62300
:101FF00040F60402CDE90210AAA13846FFF776FDAB
:102000000C900C9825F046FC002000900023A74A75
:1020100019460C9825F0CCFB9F480078002854D135
:10202000A348006826F05AFF804642460EA900E009
:1020300023E0A04827F03CF900202821FF23CDE928
:1020400000314FF4AF7340F60602CDE9021095A1BE
:102050003846FFF74BFD0B90974A00210B9825F06F
:10206000B7FB0B9825F016FC002000900023914A46
:1020700019460B9825F09CFB27E08748007801283B
:1020800023D18E48006826F029FF804642460EA9DB
:102090008B4827F00DF900202821FF23CDE90031DE
:1020A000E62340F60402CDE902107EA13846FFF790
:1020B0001DFD0C900C9825F0EDFB002000900023F6
:1020C0007F4A19460C9825F073FB00230A22194613
:1020D00038462CF0DDFA00BFFFF7CCFCFFF78FFC91
:1020E000784828F0C3FE4B22462177A027F05AFB00
:1020F000AF22462176A027F055FB022355224FF44C
:10210000A0717548006827F0A3FAFFF7C9FE814661
:10211000B9224FF4A57127F045FB5F4800780128EC
:1021200003D05D480078022818D16C4828F09EFE44
:10213000FF224FF4B5716AA027F034FB0223FF227F
:102140004FF4A5716748006827F082FA0223FF2246
:102150004FF4B9716448006827F07AFA3BE14E48C1
:10216000007801280FD160480068401C5E49086073
:10217000084600683C2806DB0020086059480068D3
:10218000401C58490860FFF775FCFFF738FC3846DB
:102190002CF0CCFF2CF096FC81462CF0C7FF4FF4BE
:1021A0007A71E8682DF0D5F815E114E1A8682CF0F3
:1021B000BDFC0646EC68A6F5006007281BD2DFE8E8
:1021C00000F01B04493295D8F600012C02D0022CF5
:1021D00010D100E00EE040480068401E3E49086013
:1021E00008460068002801DA3C20086038462CF0D8
:1021F0009DFF00BF00BFE8E0012C02D0022C10D1EF
:1022000000E00EE034480068401C3349086008468E
:1022100000683C2801DB0020086038462CF086FF6F
:1022200000BF00BFD1E0012C02D0022C10D100E091
:102230000EE015480068401C134908600846006815
:10224000032801DB0020086038462CF06FFF00BF38
:1022500000BFBAE0012C02D0022C10D100E00EE049
:1022600009480068401E08490860084600680028C0
:1022700001DA0220086038462CF058FF00BF00BF8A
:10228000A3E00000E8000020E00000204C00002057
:102290003C1A002020000000E4000020E023050894
:1022A000F43C05080000000054000020641A0020DF
:1022B00058000020781A002000BFFF0050000020C6
:1022C000501A0020ECD40808C9EEB6C8000000007F
:1022D000C4A3CABD00000000DC0000205CD40808D4
:1022E0003A000000F4000020F8000020012C02D089
:1022F000022C3CD100E03AE039480078E0B9079878
:102300002CF0E4FA08982CF0E1FA09982CF0DEFAA7
:102310000A982CF0DBFA0B982CF0D8FA01203049FF
:102320000870FFF7DAFBAFF27940FFF7B9FB032142
:102330002CA0FFF793FA19E02948007801280CD166
:102340000B982CF0C3FA022025490870FFF7C5FB53
:10235000AFF2A540FFF7A4FB08E001202049087078
:10236000FFF7BBFBAFF2B940FFF79AFB00BF00BF1E
:102370002BE0012C02D0022C16D100E014E018480A
:10238000007880B100201649087019490860194981
:1023900008601949086019490860FFF79EFBAFF211
:1023A000F140FFF77DFB00BF00BF0EE0FFE7012C0F
:1023B00002D0022C07D100E005E0FFF78EFB1048A9
:1023C000FFF76EFB00BF00BF00BF00BF03E0284661
:1023D0002CF044FA00BF00BF11B0BDE8F08300004C
:1023E000E4000020D5FDD4DAD4CBD0D0000000002A
:1023F000F4000020F8000020E0000020DC000020B5
:10240000E74000082DE9F0418AB08046002601220D
:10241000FC480168FC4812F032FE0546002D67D0EA
:1024200000BF00BF00BF16F083F9064600BF00BF23
:10243000F6480078401CF549087000BF00BF3046E0
:1024400016F07AF900BF00BF00BF142105A823F0E1
:10245000DCFDEF4AEFA105A823F03AFA1322E94880
:102460000168E94812F00BFE054605A823F074FC4C
:102470000746EA4B3A4605A9E34813F07AF80546C1
:102480001DB1E7A002F0C6FB02E0E8A002F0C2FB2B
:1024900000BF00BF00BF16F04BF9064600BF00BFEB
:1024A000DA480078401ED949087008460078A0B97B
:1024B000E1480088002809DD00BF00BF304616F063
:1024C0003BF900BF00BF18F0DFFB0DE000BF00BF0D
:1024D000304616F031F900BF06E000BF00BF3046BD
:1024E00016F02AF900BF00BF00BFC74813F051FA29
:1024F000C54813F04EFA0122C2480168C24812F0E2
:10250000BEFD054600BF00BF00BF16F011F906462C
:1025100000BF00BFBD480078401CBC49087000BF28
:1025200000BF304616F008F900BF00BF00BFC34B24
:1025300016226946B44812F000FF0546002404E064
:102540001DF80400B2490855641C062CF8DB00BFD6
:1025500000BF00BF16F0ECF8064600BF00BFAB4856
:102560000078401EA949087008460078A0B9B24812
:102570000088002809DD00BF00BF304616F0DCF8F7
:1025800000BF00BF18F080FB0DE000BF00BF304669
:1025900016F0D2F800BF06E000BF00BF304616F0CC
:1025A000CBF800BF00BF00BF974813F0F2F90AB0A4
:1025B000BDE8F0812DE9F041074600250122914850
:1025C0000168914812F05BFD0446042C47D100BF1E
:1025D00000BF00BF16F0ACF8054600BF00BF8B4837
:1025E0000078401C8949087000BF00BF284616F0DB
:1025F000A3F800BF00BF00BF0020FFF7DBFF00BF54
:1026000000BF00BF16F094F8054600BF00BF7F482A
:102610000078401E7D49087008460078A0B98648B9
:102620000088002809DD00BF00BF284616F084F8A6
:1026300000BF00BF18F028FB0DE000BF00BF284618
:1026400016F07AF800BF06E000BF00BF284616F07B
:1026500073F800BF00BF00BF6B4813F09AF96A48D7
:1026600013F097F9022267480168674812F007FDE6
:10267000044600BF00BF00BF16F05AF8054600BF71
:1026800000BF62480078401C6049087000BF00BF6E
:10269000284616F051F800BF00BF00BF5C4823F089
:1026A0005BFB0646654B32465949574812F061FFBD
:1026B000044600BF00BF00BF16F03AF8054600BF51
:1026C00000BF52480078401E504908700846007804
:1026D000A0B959480088002809DD00BF00BF28467E
:1026E00016F02AF800BF00BF18F0CEFA0DE000BFC8
:1026F00000BF284616F020F800BF06E000BF00BF6C
:10270000284616F019F800BF00BF00BF3E4813F07E
:1027100040F9BDE8F081002049494A4A126851F861
:10272000220070472DE9F04F85B0044688461546D3
:102730001E46DDE90FABDDF83890149F0020022122
:102740005B465246CDE90205CDE900414946304697
:1027500024F0C6FE0490139848B11FB13846FFF725
:102760003BF880464146049825F0AAF802E0049818
:102770002CF014F93449049825F05AF8334A002112
:10278000049825F025F8324A0121049825F020F814
:10279000304A0221049825F01BF80021119A049870
:1027A00025F0D0F80121129A049825F0CBF80221E7
:1027B000119A049825F0C6F80121049825F030F804
:1027C000254904982BF05AFD049805B0BDE8F08F18
:1027D00011B595B0159840681490A0200E908C20EB
:1027E0000D9050200C9024200B9007200A90099007
:1027F000159800681D287DD030DC012835D00F28C1
:1028000079D1E3E118010020981A0020D4020020B9
:102810000001002025730D0A000000003402002092
:10282000D0B4C8EBCAA7B0DC0D0A0000D0B4C8EB26
:10283000B3C9B9A60D0A000098020020300200209A
:102840001C01002014010020ECD30808B8B8B8001F
:10285000E0E0E000C0C0C000D4FF080826287CD01B
:10286000A0F213100028CBD1DBE114982CF03EFE2F
:10287000FA4828F0FBFA0020F9492823CDE9023074
:10288000CDE9041041214FF40062CDE90013F5A118
:102890001498FFF780F90020F349086001214FF4F4
:1028A000E0020392CDE904210690099ADDE90B01CB
:1028B000831800240D9A04FB0322CDE90021029025
:1028C00008460A9901440E9804FB0100034640F6AD
:1028D0000402E6A108901498FFF724FF00200121CC
:1028E0004FF4E0020392CDE904210690099ADDE954
:1028F0000B0101E0A2E19BE383180D9A04FB032284
:10290000CDE90021029008460A99014401220E985F
:1029100002FB0100034640F60502D5A10890149879
:10292000FFF700FF002001214FF4E0020392CDE900
:1029300004210690099ADDE90B0183180D9A04FB26
:102940000322CDE90021029008460A99014402229F
:102950000E9802FB0100034600E070E140F606021B
:10296000C4A108901498FFF7DDFE002001214FF468
:10297000E0020392CDE904210690099ADDE90B01FA
:10298000831801240D9A04FB0322CDE90021029053
:1029900008460A99014400220E9802FB01000346F2
:1029A00040F60702B4A108901498FFF7BBFE002080
:1029B00001214FF4E0020392CDE904210690099A27
:1029C000DDE90B0183180D9A04FB0322CDE90021F8
:1029D000029008460A9901440E9804FB0100034640
:1029E00040F60802A5A108901498FFF79BFE00206E
:1029F00001214FF4E0020392CDE904210690099AE7
:102A0000DDE90B0183180D9A04FB0322CDE90021B7
:102A1000029008460A99014402220E9802FB010026
:102A2000034640F6090296A108901498FFF77AFE33
:102A3000002001214FF4E0020392CDE90421069029
:102A4000099ADDE90B01831802240D9A04FB032285
:102A5000CDE90021029008460A99014400220E980F
:102A600002FB0100034640F60A0286A10890149872
:102A7000FFF758FE002001214FF4E0020392CDE958
:102A800004210690099ADDE90B0183180D9A04FBD5
:102A90000322CDE90021029008460A99014401224F
:102AA0000E9802FB0100034640F60B0276A1089047
:102AB0001498FFF737FE002001214FF4E002039243
:102AC000CDE904210690099ADDE90B0183180D9ADE
:102AD00004FB0322CDE90021029008460A99014433
:102AE0000E9804FB0100034640F60C0267A1089013
:102AF0001498FFF717FE002001214FF4E002039223
:102B0000CDE904210690099ADDE90B01831803241D
:102B10000D9A04FB0322CDE90021029008460A9990
:102B2000014400220E9802FB0100034640F6020217
:102B300057A108901498FFF7F5FD002001214FF4EC
:102B4000E0020392CDE904210690099ADDE90B0128
:102B500083180D9A04FB0322CDE900210290084658
:102B60000A99014401220E9802FB0100034640F637
:102B7000030249A108901498FFF7D4FD0020012119
:102B80004FF4E0020392CDE904210690099ADDE9B1
:102B90000B0183180D9A04FB0322CDE9002102905A
:102BA00008460A99014402220E9802FB01000346DE
:102BB00040F6010239A108901498FFF7B3FD0023F5
:102BC0000A22194614982BF063FD00BFFEF752FF4E
:102BD000FEF715FF214828F049F94122E62131A0EE
:102BE00026F0E0FDFFF797FD9B224621089026F096
:102BF000D9FD00200F901090119007E02C491198FA
:102C0000095C0FAA11541198401C11901649119893
:102C100009688842F2DBD72246210FA826F0C2FDC0
:102C20000AE2FEF7ECFE14982CF080FA1598C068C2
:102C30004FF47A7108902CF08CFBFDE1FCE11598C3
:102C4000806808902BF072FF12901598C06813905E
:102C50001298A0F500600D2843D22BE05CD4080840
:102C6000CC0A050820000000FC0000203100000014
:102C70003200000033000000340000003500000086
:102C80003600000037000000380000003900000066
:102C9000C8A1CFFB0000000030000000C8B7C8CFBB
:102CA00000000000D0DEB8C4C3DCC2EB00000000AE
:102CB00006010020DFE800F007F0EFF1162E465E77
:102CC000768EA6BED6001398012802D0022807D11E
:102CD00000E005E0FEF701FFFE48FEF7E1FE00BF61
:102CE00000BFA3E11398012802D0022810D100E010
:102CF0000EE0F9480068062809DA3120F749F64A5B
:102D000012688854F4480068401CF349086000BF0A
:102D100000BF8BE11398012802D0022810D100E0F7
:102D20000EE0ED480068062809DA3220EB49EA4A4D
:102D300012688854E8480068401CE749086000BFF2
:102D400000BF73E11398012802D0022810D100E0DF
:102D50000EE0E1480068062809DA3320DF49DE4A40
:102D600012688854DC480068401CDB49086000BFDA
:102D700000BF5BE11398012802D0022810D100E0C7
:102D80000EE0D5480068062809DA3420D349D24A33
:102D900012688854D0480068401CCF49086000BFC2
:102DA00000BF43E11398012802D0022810D100E0AF
:102DB0000EE0C9480068062809DA3520C749C64A26
:102DC00012688854C4480068401CC349086000BFAA
:102DD00000BF2BE11398012802D0022810D100E097
:102DE0000EE0BD480068062809DA3620BB49BA4A19
:102DF00012688854B8480068401CB749086000BF92
:102E000000BF13E11398012802D0022810D100E07E
:102E10000EE0B1480068062809DA3720AF49AE4A0B
:102E200012688854AC480068401CAB49086000BF79
:102E300000BFFBE01398012802D0022810D100E067
:102E40000EE0A5480068062809DA3820A349A24AFE
:102E500012688854A0480068401C9F49086000BF61
:102E600000BFE3E01398012802D0022810D100E04F
:102E70000EE099480068062809DA39209749964AF1
:102E80001268885494480068401C9349086000BF49
:102E900000BFCBE001E018E035E01398012802D034
:102EA000022810D100E00EE08B480068062809DAFD
:102EB00030208A49884A1268885487480068401C34
:102EC0008549086000BF00BFB0E01398012802D018
:102ED000022816D100E014E07F48006800280FDBCC
:102EE0002A217E487C4A126881547B480068401E33
:102EF0007949086008460068002801DA0020086067
:102F000000BF00BF92E01398012802D0022800D130
:102F100000E089E07248006820B101282BD0022827
:102F20007FD149E006226D496E4822F034FF90B906
:102F3000002069490860119006E02A21674A11982B
:102F400011541198401C119011980628F5DB0120AE
:102F5000634908600EE000205F490860119006E0B8
:102F60002A215E4A119811541198401C1190119811
:102F70000628F5DB56E058480068062818D10020DE
:102F8000119007E055491198095C574A115411985E
:102F9000401C119011980628F4DB0220504908606B
:102FA00000204D4908604D4800210160818002E009
:102FB0004EA001F02FFE35E04748006806282CD1CE
:102FC00006224649484822F0E6FE10BB0020119038
:102FD00007E042491198095C424A11541198401C7B
:102FE000119011980628F4DB0020FFF7E3FA002087
:102FF0003B490860384908603848002101608180F9
:10300000FEF76BFDFEF7FBFC3248FEF749FD07E0DB
:1030100007E03AA001F0FEFD02E034A001F0FAFD65
:1030200000E000BF00BF00BF00BF00BF00BF03E063
:1030300015982BF013FC00BF00BF16B010BDF0B503
:1030400087B00446676820681D286BD004DC01281F
:1030500009D00F2867D1A5E0262865D0A0F213106B
:103060000028F7D1B1E038462CF040FA274827F085
:10307000FDFE002026492823CDE90230CDE90410C9
:1030800041214FF40062CDE90013AFF228413846E8
:10309000FEF781FD002042214FF4C8727F23CDE965
:1030A0000032CDE90210034640F60402AFF20C41B3
:1030B0003846FEF71BFD002042214FF4C872C123A1
:1030C000CDE90032CDE90210034640F6050211A118
:1030D00038462AE087330008FC0000200601002063
:1030E00014010020000100200C010020C7EBCAE4FD
:1030F000C8EBC1F9CEBBC3DCC2EB0000C7EBCAE42E
:10310000C8EBCFE0CDACC3DCC2EB00005CD4080858
:10311000CC0A0508CEBBD2C6B4ABB8D0C6F7D0A394
:10312000D7BC00005CE087E05BE0FEF7DFFC00203E
:10313000422150227F23CDE90032CDE902104FF425
:10314000C87340F60202AFF2B8413846FEF7CEFC33
:10315000002042214FF4C87240F20313CDE900323F
:10316000CDE90210034640F60302FAA13846FEF705
:10317000BDFC00204221502240F20313CDE9003271
:10318000CDE902104FF4C87340F60102AFF2F441EA
:103190003846FEF7ABFC00230A22194638462BF0CE
:1031A00077FA00BFFEF766FCFEF729FCED4827F032
:1031B0005DFE4122E621E7A026F0F4FACD224FF48D
:1031C000DC71E9A026F0EEFA3AE0FEF718FC38468A
:1031D0002BF0ACFF4FF47A71E0682CF0BAF82FE0D6
:1031E0002EE0A0682BF0A2FC0646E568B6F5006F5D
:1031F00003D0A6F60400E8B90DE0012D02D0022D9F
:1032000007D100E005E0FEF768FCD848FEF748FC6F
:1032100000BF00BF0EE0012D02D0022D08D100E05A
:1032200006E0FEF75AFCAFF65720FEF739FC00BF68
:1032300000BF00BF00BF03E020462BF00FFB00BF24
:1032400000BF07B0F0BDF0B587B0044667682068DE
:103250001D2864D004DC012809D00F2871D145E075
:1032600026285DD0A0F213100028F7D14CE0384694
:103270002CF03CF9BB4827F0F9FD0020BC4928237D
:10328000CDE90230CDE9041041214FF40062CDE9CF
:103290000013AFF230613846FEF77DFC002042217A
:1032A0004FF4F072C123CDE90032CDE9021003469C
:1032B00040F60202AFA13846FEF718FC002042217A
:1032C0004FF4F07240F20313CDE90032CDE9021061
:1032D000034640F60102ADA13846FEF707FC002385
:1032E0000A22194638462BF0D3F900BFFEF7C2FB7D
:1032F000FEF785FB9B4827F0B9FD4122E621AFF29E
:10330000EC1026F04FFA3BE0FEF779FB38462BF045
:103310000DFF4FF47A71E0682CF01BF830E02FE0DD
:10332000A0682BF003FC0646E568B6F5006F03D0F5
:10333000A6F60400F0B90EE0012D03D0022D08D14D
:1033400001E019E005E0FEF7C8FB8848FEF7A8FB9E
:1033500000BF00BF0EE0012D02D0022D08D100E019
:1033600006E0FEF7BAFBAFF69730FEF799FB00BF19
:1033700000BF00BF00BF03E020462BF06FFA00BF84
:1033800000BF07B0F0BDF0B587B00446676820689D
:103390001D287CD004DC012809D00F2878D17CE0DE
:1033A000262876D0A0F213100028F7D188E03846FE
:1033B0002CF09CF86B4827F059FD00206C4928231D
:1033C000CDE90230CDE9041041214FF40062CDE98E
:1033D0000013AFF270713846FEF7DDFB002042218A
:1033E0004FF4C8727F23CDE90032CDE902100346C5
:1033F00040F60402AFF254713846FEF777FB002026
:1034000042214FF4C872C123CDE90032CDE9021048
:10341000034640F60502AFF204313846FEF766FB7C
:103420000020422150227F23CDE90032CDE9021055
:103430004FF4C87340F6020256A13846FEF756FB19
:10344000002042214FF4C87240F20313CDE900324C
:10345000CDE90210034640F603023EA13846FEF7CE
:1034600045FB00204221502240F20313CDE90032F7
:10347000CDE902104FF4C87340F6010247A1384667
:10348000FEF734FB00230A221946384602E022E008
:103490009FE021E02BF0FCF800BFFEF7EBFAFEF70F
:1034A000AEFA304827F0E2FC4122E6213DA026F0AA
:1034B00079F9CD224FF4DC712BA026F073F98CE062
:1034C000FEF79DFA38462BF031FE4FF47A71E06832
:1034D0002BF03FFF81E080E0A0682BF027FB064641
:1034E000E568B6F5006F07D0A6F6030080B30128A3
:1034F00010D002286BD11CE0012D02D0022D07D183
:1035000000E005E0FEF7E9FA2848FEF7C9FA00BF37
:1035100000BF5CE0012D02D0022D08D100E006E0E2
:10352000FEF7DBFAAFF65750FEF7BAFA00BF00BF5E
:103530004DE0012D02D0022D08D100E006E0FEF79B
:10354000CCFAAFF2FD20FEF7ABFA00BF00BF3EE0C1
:103550002EE00000B0B4D1B9C9EEB6C8D0A3D7BC34
:10356000000000005CD40808312F310087330008C8
:10357000CC0A0508CCE1CABE3AB0B422BFAACABC84
:1035800022C6F4B6AFD0A3D7BC000000BFAACABC05
:1035900000000000C9CFD2C600000000CFC2D2C6D2
:1035A00000000000CEACBBA400000000193D0008E4
:1035B000012D02D0022D08D100E006E0FEF78DFAC1
:1035C000AFF28550FEF76CFA00BF00BF00BF00BF2E
:1035D00003E020462BF042F900BF00BF07B0F0BD6A
:1035E00011B595B0159840681490A0200E908C20CD
:1035F0000D9050200C9024200B9007200A900990E9
:10360000159800681D287CD004DC012809D00F28FB
:1036100078D1C6E1262876D0A0F213100028F7D181
:10362000E9E114982BF062FFF94827F01FFC002015
:10363000F8492823CDE90230CDE9041041214FF4A7
:103640000062CDE90013AFF6E4111498FEF7A3FA77
:103650000020F1490860FEF7D5FE002001214FF45B
:10366000E0020392CDE904210690099ADDE90B01FD
:10367000831800240D9A04FB0322CDE90021029057
:1036800008460A9901440E9804FB0100034640F6DF
:103690000402AFF6282108901498FFF743F80020A1
:1036A00001214FF4E0020392CDE904210690099A2A
:1036B000DDE90B0183180D9A04FB0322CDE90021FB
:1036C000029008460A99014401220E9802FB01006B
:1036D000034640F60502AFF6682108901498FFF7FC
:1036E00021F8002001214FF4E0020392CDE90421EA
:1036F0000690099ADDE90B0183180D9A04FB032259
:1037000002E08BE1F9E28AE1CDE90021029008466E
:103710000A99014402220E9802FB0100034640F67A
:103720000602AFF6B02108901498FEF7FBFF0020C8
:1037300001214FF4E0020392CDE904210690099A99
:10374000DDE90B01831801240D9A04FB0322CDE966
:103750000021029008460A99014400220E9802FBBB
:103760000100034640F60702AFF6F42108901498D2
:10377000FEF7D8FF002001214FF4E0020392CDE9CB
:1037800004210690099ADDE90B0183180D9A04FBC8
:103790000322CDE90021029008460A9901440E98BF
:1037A00004FB0100034640F60802AFF630310890F2
:1037B0001498FEF7B7FF002001214FF4E0020392B6
:1037C000CDE904210690099ADDE90B0183180D9AD1
:1037D00004FB0322CDE90021029008460A99014426
:1037E00002220E9802FB0100034640F60902AFF6E2
:1037F000703108901498FEF795FF002001214FF4D6
:10380000E0020392CDE904210690099ADDE90B015B
:10381000831802240D9A04FB0322CDE900210290B3
:1038200008460A99014400220E9802FB0100034653
:1038300040F60A02AFF6B43108901498FEF772FF12
:10384000002001214FF4E0020392CDE9042106900B
:10385000099ADDE90B0183180D9A04FB0322CDE9D7
:103860000021029008460A99014401220E9802FBA9
:103870000100034640F60B02AFF6F43108901498AD
:10388000FEF750FF002001214FF4E0020392CDE942
:1038900004210690099ADDE90B0183180D9A04FBB7
:1038A0000322CDE90021029008460A9901440E98AE
:1038B00004FB0100034640F60C02AFF630410890CD
:1038C0001498FEF72FFF002001214FF4E00203922D
:1038D000CDE904210690099ADDE90B018318032440
:1038E0000D9A04FB0322CDE90021029008460A99B3
:1038F000014400220E9802FB0100034640F602023A
:10390000AFF6744108901498FEF70CFF00200121D7
:103910004FF4E0020392CDE904210690099ADDE913
:103920000B0183180D9A04FB0322CDE900210290BC
:1039300008460A99014401220E9802FB0100034641
:1039400040F60302AFF6B04108901498FEF7EAFE85
:10395000002001214FF4E0020392CDE904210690FA
:10396000099ADDE90B0183180D9A04FB0322CDE9C6
:103970000021029008460A99014402220E9802FB97
:103980000100034640F60102AFF6F041089014989A
:10399000FEF7C8FE00230A22194614982AF078FE82
:1039A00000BFFEF767F8FEF72AF8194827F05EFA1D
:1039B0004122E621AFF2144025F0F4FE9B2246217D
:1039C000AFF61C5025F0EEFE00200F9010901190E5
:1039D00006E02A210FAA119811541198401C119049
:1039E0000D49119809688842F3DBD72246210FA8B8
:1039F00025F0D8FE85E1FEF702F814982BF096FB2F
:103A00001598C0684FF47A7108902BF0A2FC78E109
:103A10005CD40808CC0A0508FC00002071E1159868
:103A2000806808902BF082F812901598C068139067
:103A30001298A0F500600D2816D2DFE800F007F01C
:103A4000EFF1162E465E768EA6BED600139801289C
:103A500002D0022807D100E005E0FEF73EF8AA48B0
:103A6000FEF71EF800BF00BF45E11398012802D001
:103A7000022810D100E00EE0A4480068062809DA08
:103A80003120A34AA14909685054A0480068401C4D
:103A90009E49086000BF00BF2DE11398012802D0A5
:103AA000022810D100E00EE098480068062809DAE4
:103AB00032209749954A1268885494480068401CFF
:103AC0009249086000BF00BF15E11398012802D099
:103AD000022810D100E00EE08C480068062809DAC0
:103AE00033208B4A89490968505488480068401C33
:103AF0008649086000BF00BFFDE01398012802D08E
:103B0000022810D100E00EE080480068062809DA9B
:103B100034207F497D4A126888547C480068401CE4
:103B20007A49086000BF00BFE5E01398012802D081
:103B3000022810D100E00EE074480068062809DA77
:103B40003521734A71480068115470480068401C60
:103B50006E49086000BF00BFCDE01398012802D075
:103B6000022810D100E00EE068480068062809DA53
:103B700036216748654A1268815464480068401CD1
:103B80006249086000BF00BFB5E01398012802D069
:103B9000022810D100E00EE05C480068062809DA2F
:103BA00037215B48594A1268815458480068401CC4
:103BB0005649086000BF00BF9DE01398012802D05D
:103BC000022810D100E00EE050480068062809DA0B
:103BD00038214F484D4A126881544C480068401CB7
:103BE0004A49086000BF00BF85E01398012802D051
:103BF000022810D100E00EE044480068062809DAE7
:103C000039204349414A1268885440480068401CA2
:103C10003E49086000BF00BF6DE001E018E035E0FC
:103C20001398012802D0022810D100E00EE0374896
:103C30000068062809DA30203549344A1268885469
:103C400032480068401C3149086000BF00BF52E0A4
:103C50001398012802D0022816D100E014E02B4866
:103C6000006800280FDB2A212948284A126881545D
:103C700026480068401E254908600846006800285C
:103C800001DA0020086000BF00BF34E0139801286B
:103C900002D002282DD100E02BE006221C491D484D
:103CA00022F079F8A8B9002018490860119006E0C0
:103CB0002A21174A119811541198401C11901198FB
:103CC0000628F5DBFDF709FFAFF64510FDF7E8FE26
:103CD0000EE000200D490860119006E02A210C4AF0
:103CE000119811541198401C119011980628F5DB79
:103CF00000BF00BF00BF00BF03E015982AF0AEFD73
:103D000000BF00BF16B010BD193D0008FC00002028
:103D10000601002000010020F0B587B00446676866
:103D20002068012808D00F2870D0262873D0A0F270
:103D30001310002870D170E038462BF0D7FBFE48F6
:103D400027F094F80020FD492823CDE90230CDE981
:103D50000410412140F61102CDE90013F8A13846C4
:103D6000FDF719FF0120F7490022A023CDE9023217
:103D7000CDE90410BE207D21F02340F60102CDE9FB
:103D80000010F1A13846FDF706FF0120F14900229D
:103D9000A023CDE90232CDE90410BE207D213223DB
:103DA0004FF40062CDE90010EBA13846FDF7F3FEB9
:103DB0000220EB490022A023CDE90232CDE9041014
:103DC00032207D21134640F60202CDE90010DCA12D
:103DD0003846FDF7E0FE0220E2490022A023CDE9AB
:103DE0000232CDE9041032207D214FF4D77340F622
:103DF0000302CDE90010D2A13846FDF7CCFE002326
:103E00000A22194638462AF043FC00BFFDF732FE6D
:103E1000FDF7F5FD70E00BE06AE0FDF7F0FD3846D8
:103E20002BF084F94FF47A71E0682BF092FA63E09A
:103E3000A0682AF07BFE0646E56840F60201701A8B
:103E40008E4229D007DCB6F5006F17D0A6F6010028
:103E500000284BD104E001282CD00F2846D137E0B0
:103E6000012D02D0022D07D100E005E0FDF735FE5F
:103E7000BD48FDF715FE00BF00BF37E0012D02D0A1
:103E8000022D07D100E005E0FDF727FEB748FDF75A
:103E900007FE00BF00BF29E0012D02D0022D07D18F
:103EA00000E005E0FDF719FEB148FDF7F9FD00BFA0
:103EB00000BF1BE0012D02D0022D07D100E005E07C
:103EC000FDF70BFEAB48FDF7EBFD00BF00BF0DE0BB
:103ED000012D02D0022D07D100E005E0FDF7FDFD28
:103EE000A548FDF7DDFD00BF00BF00BF00BF03E038
:103EF00020462AF0B3FC00BF00BF07B0F0BDF0B50C
:103F000087B0044667682068012808D00F2870D061
:103F1000262873D0A0F21310002870D170E0384624
:103F20002BF0E4FA844826F0A1FF002083492823DF
:103F3000CDE90230CDE90410412140F61102CDE96E
:103F400000137FA13846FDF726FE01208B49002291
:103F5000A023CDE90232CDE90410BE207D21F0235B
:103F600040F60102CDE9001085A13846FDF713FEA9
:103F7000012085490022A023CDE90232CDE90410B9
:103F8000BE207D2132234FF40062CDE900107FA1D5
:103F90003846FDF700FE022071490022A023CDE93A
:103FA0000232CDE9041032207D21134640F6020290
:103FB000CDE9001062A13846FDF7EDFD0220694908
:103FC0000022A023CDE90232CDE9041032207D2168
:103FD0004FF4D77340F60302CDE9001058A13846DC
:103FE000FDF7D9FD00230A22194638462AF050FB76
:103FF00000BFFDF73FFDFDF702FD71E00BE06BE058
:10400000FDF7FDFC38462BF091F84FF47A71E0682B
:104010002BF09FF964E0A0682AF088FD0646E56869
:1040200040F60201701A8E4229D007DCB6F5006F07
:1040300017D0A6F6010000284CD104E001282CD0AE
:104040000F2847D138E0012D02D0022D07D100E022
:1040500005E0FDF742FD5048FDF722FD00BF00BF1F
:1040600038E0012D02D0022D07D100E005E0FDF778
:1040700034FD4A48FDF714FD00BF00BF2AE0012DC2
:1040800002D0022D07D100E005E0FDF726FD3948FA
:10409000FDF706FD00BF00BF1CE0012D02D0022D80
:1040A00008D100E006E0FDF718FDAFF29330FDF710
:1040B000F7FC00BF00BF0DE0012D02D0022D07D19B
:1040C00000E005E0FDF709FD2B48FDF7E9FC00BF26
:1040D00000BF00BF00BF03E020462AF0BFFB00BFC7
:1040E00000BF07B0F0BDF0B587B004466768206830
:1040F000012808D00F287DD026287CD0A0F21310EC
:10410000002879D1B2E038462BF0F0F90A4826F0C1
:10411000ADFE7D234FF4F0721946002025F03CFDE2
:10412000002006492823CDE90230CDE904104121C1
:1041300040F6110234E000005CD40808CC0A0508FF
:1041400020000000B8F10408B9D8D3DAB1BEBBFA38
:104150000000000064B90408CEACBBA4000000005D
:10416000E86B0508DC9A05089F080008E13500089F
:10417000FF3E0008E7400008AF1E00081081040859
:10418000C8D5C6DA00000000BC480408CAFDBEDD80
:10419000B4ABCAE40000000073460008CB1300086B
:1041A000CDE90013AFF268013846FDF7F4FC0120B9
:1041B00068490022A023CDE90232CDE90410BE20D7
:1041C0007D21F02340F60102CDE9001062A13846BE
:1041D000FDF7E1FC012063490022A023CDE9023272
:1041E000CDE90410BE207D2132234FF40062CDE9D9
:1041F000001002E035E044E0A5E05BA13846FDF7A1
:10420000CAFC02205B490022A023CDE90232CDE99D
:10421000041032207D21134640F60202CDE9001041
:10422000AFF2E4013846FDF7B6FC02205249002205
:10423000A023CDE90232CDE9041032207D214FF4D4
:10424000D77340F60302CDE90010AFF20C113846E7
:10425000FDF7A1FC00230A22194638462AF018FA75
:1042600000BFFDF707FCFDF7CAFB70E0FDF7C7FBD9
:1042700038462AF05BFF4FF47A71E0682BF069F85A
:1042800065E0A0682AF052FC0646E56840F60201A7
:10429000701A8E4229D007DCB6F5006F17D0A6F64B
:1042A000010000284DD104E001282DD00F2848D16D
:1042B00039E0012D02D0022D07D100E005E0FDF725
:1042C0000CFC2E48FDF7ECFB00BF00BF39E0012DD0
:1042D00002D0022D07D100E005E0FDF7FEFB2848E3
:1042E000FDF7DEFB00BF00BF2BE0012D02D0022D49
:1042F00008D100E006E0FDF7F0FBAFF2E350FDF778
:10430000CFFB00BF00BF1CE0012D02D0022D08D161
:1043100000E006E0FDF7E1FBAFF21D40FDF7C0FB5A
:1043200000BF00BF0DE0012D02D0022D07D100E03B
:1043300005E0FDF7D2FB1348FDF7B2FB00BF00BF5D
:1043400000BF00BF03E020462AF088FA00BF00BF8C
:1043500007B0F0BD68100408B1A8BEAFC8D5D6BE7E
:104360000000000014D80308CFB5CDB3C9E8D6C308
:1043700000000000E86B0508DC9A0508A51000089D
:1043800097430008AF1E000800209849984A126819
:1043900051F8220070472DE9F04186B00446676865
:1043A00020681D287ED004DC012809D00F287AD18E
:1043B0005DE0262878D0A0F213100028F7D187E01E
:1043C00038462BF093F88B4826F050FD002014213E
:1043D000AF23CDE90031E62340F60302CDE9021018
:1043E00085A13846FDF782FB00201421AF23CDE9DB
:1043F00000314FF4D27340F60202CDE902107FA1E2
:104400003846FDF773FB002014217D23CDE90031F0
:10441000E6234FF40062CDE9021079A13846FDF79A
:1044200065FB002014217D23CDE900314FF4D273C8
:1044300040F60102CDE9021072A13846FDF756FBA5
:10444000002071492823CDE90230CDE90410412133
:1044500040F60402CDE900136CA13846FDF79BFB42
:1044600000230A22194638462AF012F900BFFDF748
:1044700001FBFDF7C4FA5F4826F0F8FC7D224621D7
:1044800063A025F08FF9AF22462163A025F08AF9B9
:10449000E122462162A025F085F9FFF775FF8046ED
:1044A0007D2202E01FE099E01EE04FF4A57125F0A7
:1044B00079F90223AF224FF4A0715C48006825F01F
:1044C000C7F8E1224FF4A57159A025F06BF989E0F6
:1044D000FDF795FA38462AF029FE4FF47A71E06824
:1044E0002AF037FF7EE07DE0A0682AF01FFB064639
:1044F000E568A6F5006005286ED2DFE800F04831D7
:104500001A035F00012D02D0022D10D100E00EE051
:1045100046480068401E4549086008460068002873
:1045200001DA0720086038462AF000FE00BF00BF0D
:1045300052E0012D02D0022D10D100E00EE03B48E8
:104540000068401C3949086008460068082801DBFB
:104550000020086038462AF0E9FD00BF00BF3BE0BC
:10456000012D02D0022D10D100E00EE0204800689D
:10457000401C1F49086008460068032801DB002032
:10458000086038462AF0D2FD00BF00BF24E0012DAC
:1045900002D0022D10D100E00EE015480068401E48
:1045A0001349086008460068002801DA0220086004
:1045B00038462AF0BBFD00BF00BF0DE0012D02D040
:1045C000022D07D100E005E0FDF787FA1A48FDF754
:1045D00067FA00BF00BF00BF00BF03E020462AF01B
:1045E0003DF900BF00BF06B0BDE8F08130010020FA
:1045F000280100205CD408086A6965006A696100C6
:104600007A756F00796F7500CC0A050820000000EC
:10461000D3EFD1D400000000D2F4C1BF00000000ED
:10462000D3EFD2F4C0E0D0CD000000002C01002078
:10463000E0D6E0D600000000E740000801B59DF894
:104640000310CA1701EB92729210A1EB820262B1C1
:10465000642291FBF2F302FB131232B14FF4C872E1
:1046600091FBF2F302FB13120AB9012008BD0020EE
:10467000FCE7F0B587B005466F682868012804D0CC
:104680000F287DD026287CD1FEE038462AF02EFF68
:10469000FDF7B5F9F84826F0E9FB0020142187233F
:1046A000CDE900314FF4C8734FF40062CDE9021038
:1046B000F2A13846FDF71AFA0020142140F2131334
:1046C000CDE900314FF4C87340F60102CDE9021084
:1046D000EAA13846FDF70AFA002014218723CDE924
:1046E00000314FF49A7340F60202CDE90210E3A1C3
:1046F0003846FDF7FBF90020142140F21313CDE9F1
:1047000000314FF49A7340F60302CDE90210DBA1A9
:104710003846FDF7EBF9002014218723CDE900315D
:10472000D02340F60402CDE90210D4A13846FDF7AB
:10473000DDF90020142140F21313CDE90031D0231C
:1047400040F60502CDE90210CDA13846FDF7CEF9BD
:10475000002014218723CDE900310B4640F60602E4
:10476000CDE90210C6A13846FDF7C0F9002014219A
:1047700040F21313CDE900310B4640F6070201E089
:104780004BE0EDE1CDE90210BDA13846FDF7AEF9F1
:10479000002014218723CDE90031702340F6080260
:1047A000CDE90210B6A13846FDF7A0F9002014218A
:1047B00040F21313CDE90031702340F60902CDE930
:1047C0000210AFA13846FDF791F90020AD4928232A
:1047D000CDE90230CDE9041041214FF40162CDE969
:1047E0000013A9A13846FDF7D6F90020282141235E
:1047F000CDE900314FF4AF7340F61102CDE902105C
:10480000A2A13846FDF772F9A24900200CF0F4F895
:10481000A14900200CF08AF900BFFDF72BF9FDF744
:10482000EEF89E4826F022FB4122E6219CA024F0CF
:10483000B9FFC32250219CA024F0B4FF9549087809
:104840000223C322142124F003FF92494878022353
:10485000C322702124F0FCFE8F4988780223C322F2
:10486000D02124F0F5FE8C4948780223C3224FF46E
:10487000987124F0EDFE8849C8780423C3224FF4D0
:10488000C87124F0E5FE6FE1A8682AF04FF90646EA
:10489000EC68A6F5006012281AD2DFE800F0091AC9
:1048A0002B425988B7CEE5EC191919191919EBEAF9
:1048B000012C02D0022C0AD100E008E07648C07832
:1048C000401C7549C87038462AF030FC00BF00BF54
:1048D00044E1012C02D0022C0AD100E008E06E482D
:1048E000C078401E6C49C87038462AF01FFC00BFD3
:1048F00000BF33E1012C02D0022C10D100E00EE009
:1049000065484078401C64494870084640780C2847
:1049100001DD0120487038462AF008FC00BF00BFC6
:104920001CE1012C02D0022C10D100E00EE05A480C
:104930004078401E5849487008464078002801DCFD
:104940000C20487038462AF0F1FB00BF00BF05E19B
:10495000012C02D0022C28D100E026E04E488078BD
:10496000401C4D498870084600680690FFF766FEB7
:1049700058B149484078022813D1474880781D280B
:104980000FDD0120444988700BE04348817840786E
:10499000401E464A52F82000814202DD01203E4975
:1049A000887038462AF0C2FB00BF00BFD6E0012C59
:1049B00002D0022C28D100E026E037488078401E43
:1049C00035498870084600680690FFF737FE58B1F1
:1049D00031484078022813D12F48807800280FDC16
:1049E0001D202D4988700BE02B488078002807DCBB
:1049F00029484078401E2D4911F82000264988702A
:104A000038462AF093FB00BF00BFA7E0012C02D07C
:104A1000022C10D100E00EE01E480078401C1D4919
:104A2000087008460078182801DB00200870384616
:104A30002AF07CFB00BF00BF90E0012C02D0022CCA
:104A400010D100E00EE013480078401E11490870B4
:104A500008460078182801DD1720087038462AF02B
:104A600065FB00BF00BF79E0012C21D0022C2FD1C3
:104A70001FE046E064E02DE05CD408086A6961004C
:104A80006A696500CC0A050820000000B1A3B4E6FD
:104A9000000000004401002048010020ECD4080878
:104AA000CAB1BCE4000000003A0000004C01002044
:104AB0000EE02F484078401C2D4948700846407849
:104AC0003C2801DB0020487038462AF02FFB00BF4D
:104AD00000BF43E0012C02D0022C10D100E00EE018
:104AE00023484078401E22494870084640783C28B8
:104AF00001DD3B20487038462AF018FB00BF00BF9C
:104B00002CE0012C02D0022C18D100E016E0DFF8D6
:104B100064C09CF800309CF802209CF801109CF8BE
:104B2000030005F0F1F8124B9A78597818780023B1
:104B300005F0D8F838462AF0F9FA00BF00BF0DE0BA
:104B4000012C02D0022C07D100E005E0FCF7C5FFE4
:104B50000948FCF7A5FF00BF00BF00BF00BF03E08E
:104B6000284629F07BFE00BF00BF07B0F0BD000063
:104B70004401002048010020FF3E00080EB51FE060
:104B800002A800231A4619460090FE4819F0A8F81A
:104B9000FDA010210B46C822CDE90010BE211E2029
:104BA00008F0B3FE002005F0A7FA02A808214FF490
:104BB000FA730022CDE90010114610461BF05FFF8A
:104BC000DEE70EB514E002A800231A46194600904D
:104BD000F44819F085F8022005F016FA02A8082119
:104BE00032230022CDE90010114610461BF047FF8A
:104BF000E9E70EB50DE0EC49EC481EF099FF02A87C
:104C0000082105230022CDE90010114610461BF0B3
:104C100036FFF0E70FB400B599B01BA803905121FF
:104C200004A8039B1A9A20F02DFE0020039002A8EE
:104C300000231A4619460090DD4819F051F804A9DE
:104C4000DCA020F039FE02AA0021D94819F085FA2B
:104C500019B05DF814FB2DED028B84B02AE0002022
:104C600004F019FF0446012C19D10A220421032063
:104C700005F016F8054634F0E9FD41EC180B9FED00
:104C8000CE0B53EC102B51EC180B34F02FFE41ECF3
:104C9000180B53EC182BCAA0FFF7BCFF00BF00BFD6
:104CA00003A808210A230022CDE90010114610466E
:104CB0001BF0E5FED3E70EB548E0C34800680128C5
:104CC0003AD102A8082100230222CDE9001019469A
:104CD00018461BF0D4FEBC48006801282CD14FF6C2
:104CE000FF7005F07BFF02A815F00CFBB7A01021A8
:104CF0001E23FA22CDE9001032210A2008F005FE19
:104D0000BAA3102246210A200DF02FFA4FF6FF70A9
:104D100005F064FF4FF47840B5490880B5A0102134
:104D20001E234FF48C72CDE9001032210A2008F0C6
:104D3000ECFD02A815F030FB02A808210A2300228E
:104D4000CDE90010114610461BF099FEB5E70EB5EF
:104D500012E0B148006808B9012000E00020AE4927
:104D6000086002A808214FF4FA730022CDE9001070
:104D7000114610461BF083FEEBE70EB50BE026F064
:104D800081FA02A8082105230022CDE9001011466E
:104D900010461BF074FEF2E724F0FAF9FCF719FC58
:104DA00002E00A2024F020FCFBE708B56B46012254
:104DB0009AA17F4818F065FE6B4600229BA17948B6
:104DC00018F05FFE6B4600229BA16E4818F059FE5A
:104DD00008BD30B58BB00446002500BF13F070FB52
:104DE0000AA819F0DAFA0AAA0121084615F063FBAD
:104DF0000121080309F062FD25F04EF904202AF094
:104E00003BFB00BF00BF00BF13F092FC054600BF94
:104E100000BF8E480078401C8C49087000BF00BF5E
:104E2000284613F089FC00BF00BF00BFFFF7BDFF9D
:104E30000AA8032100220592CDE906210890104618
:104E40004FF480616622824BCDE90132CDE9031037
:104E500008200023AFF2BF027EA10090814819F024
:104E600073FE0AA8032100220592CDE906210890CD
:104E7000104680210C227C4BCDE90132CDE9031094
:104E800004200023AFF20D1278A100907A4819F0A7
:104E90005BFE0AA8032100220592CDE906210890B5
:104EA000104680210C22754BCDE90132002300927F
:104EB000CDE90310AFF2691271A1744819F044FEF4
:104EC0000AA8032100220592CDE906210890104688
:104ED00080210C226E4BCDE90132CDE90310072071
:104EE0000023AFF22D226BA100906E4819F02CFE2A
:104EF0000AA8032100220592CDE906210890104658
:104F000080210C22684BCDE90132CDE90310052048
:104F10000023AFF2BD2265A10090674819F014FE8E
:104F20000AA8032100220592CDE906210890104627
:104F30004FF400713322614BCDE90132CDE903100A
:104F400006200023AFF255325DA100905F4819F0B2
:104F5000FBFD0AA8032100220592CDE90621089055
:104F600010464FF480711922594BCDE90132CDE939
:104F700003100A200023574A57A10090594819F0FE
:104F8000E3FDB1E0584B00207374617274207472B9
:104F9000616E7366657272696E672066696C6573AF
:104FA00000000000304B0020780E00200C0F002085
:104FB000084B0020257300006666666666664A3FF9
:104FC000252E34660000000000024042466F6E74D9
:104FD00020557064617461696E672C506C656173F3
:104FE0006520576169742E2E2E000000303A0000B3
:104FF000E0010020466F6E7420557064617461207A
:1050000066696E736865642C506C656173652052C7
:105010006573746172742100A482424241707050C1
:1050200072696E746653656D7000000053454D5F84
:1050300053594E434800000053454D5F444154418D
:105040005F53445F53594E4348000000D402002090
:10505000BC280020456D77696E64656D6F207461B2
:10506000736B0000F8270020AC1D0020546F75639F
:1050700068207461736B0000E81C0020342300205A
:105080004C656430207461736B0000007022002056
:10509000F8250020466F6E74757064617461207429
:1050A00061736B0034250020702000204B6579204F
:1050B0007461736B00000000AC1F00208039002079
:1050C000555342207461736B00000000BC3800200F
:1050D00044420020C34B00084D7367747220746112
:1050E000736B0000804100200AA803210022059272
:1050F000CDE90621089010464FF480711922204B0B
:10510000CDE90132CDE903100B2000231D4A1EA179
:105110000090204819F018FD0AA91F481BF089F8D3
:1051200000BF00BF00BF13F003FB054600BF00BF78
:105130001A480078401E1949087008460078A0B93E
:1051400017480088002809DD00BF00BF284613F07B
:10515000F3FA00BF00BF15F097FD0DE000BF00BFE0
:10516000284613F0E9FA00BF06E000BF00BF28465A
:1051700013F0E2FA00BF00BF00BF0BB030BD00006B
:10518000084700207D4B00084D73677364207461ED
:10519000736B000044460020B40B0020D4020020B2
:1051A000980200201CB50121202009F087FB4FF454
:1051B000C060009001208DF8040000208DF80600EA
:1051C0008DF8070003208DF805006946044809F0B2
:1051D000D7F84FF4C061024809F04EF91CBD000039
:1051E0000014024000B599B02AF0C4FF64200CF00E
:1051F000A8FC01217A2009F061FB0121084609F091
:1052000095FB4FF40040179001208DF860000020BE
:105210008DF8620002208DF8610001208DF8630096
:1052200017A9AC4809F0ACF84FF63370179002207C
:105230008DF8600000208DF8620003208DF8610079
:1052400001208DF8630017A9A34809F099F84FF6DB
:105250008370179002208DF8600000208DF86200A6
:1052600003208DF8610001208DF8630017A99B4889
:1052700009F086F84FF23F00179002208DF8600089
:1052800000208DF8620003208DF8610001208DF868
:10529000630017A9924809F073F840F23F40179055
:1052A00002208DF8600000208DF8620003208DF848
:1052B000610001208DF8630017A98A4809F060F8A1
:1052C0000C220021844809F0E6F80C2201218248D2
:1052D00009F0E1F80C2204217F4809F0DCF80C22E7
:1052E00005217D4809F0D7F80C2208217A4809F0F9
:1052F000D2F80C220921784809F0CDF80C220A21B5
:10530000754809F0C8F80C220B21734809F0C3F85E
:105310000C221146704809F0BEF80C220D216E488F
:1053200009F0B9F80C220E216B4809F0B4F80C22F0
:105330000F21694809F0AFF80C220021674809F0F5
:10534000AAF80C220121654809F0A5F80C220721D2
:10535000624809F0A0F80C220821604809F09BF887
:105360000C2209215D4809F096F80C220A215B48BD
:1053700009F091F80C220B21584809F08CF80C2206
:105380001146564809F087F80C220D21534809F0C0
:1053900082F80C220E21514809F07DF80C220F21D1
:1053A0004E4809F078F80C2200214D4809F073F8B6
:1053B0000C2201214A4809F06EF80C2202214848CB
:1053C00009F069F80C220321454809F064F80C2221
:1053D0000421434809F05FF80C220521404809F0F8
:1053E0005AF80C2211463E4809F055F80C220D21BE
:1053F0003B4809F050F80C220E21394809F04BF8CF
:105400000C220F21364809F046F80C2200213548BD
:1054100009F041F80C220121324809F03CF80C2235
:105420000221304809F037F80C2203212D4809F0F9
:1054300032F80C2204212B4809F02DF80C2205210A
:10544000284809F028F80C220A21264809F023F8F8
:10545000022001900020029004200390002004907C
:1054600005900690079004200890002009900A906B
:1054700010200B9000200C900E900D900F9010902B
:105480004FF480501190002012901390149001A8B6
:105490001590169008A808F024FC0121042008F0BB
:1054A000ABFC19B000BD10B506E004784FF0D04356
:1054B0005C54491C401C521E002AF6D110BD06E067
:1054C0004FF0D0435B5C00F8013B491C521E002AA0
:1054D000F6D1704700040240000C02400010024068
:1054E000001402400018024010B500F0BBF810BDD7
:1054F00070B50446002600F0D4F82546E11704EB09
:1055000011610912A02202EB4101C8B200F075F945
:1055100000F008F9E11704EB11610912A4EB012175
:10552000C8B200F06AF900F0FDF800F0BAF8A12066
:1055300000F063F900F0F6F8002000F08BF9064661
:1055400000F0D1F8304670BD70B504460E4600F04C
:10555000A8F82546E11704EB11610912A02202EB1D
:105560004101C8B200F049F900F0DCF8E11704EBA2
:1055700011610912A4EB0121C8B200F03EF900F05C
:10558000D1F8304600F039F900F0CCF800F0ABF873
:105590000A200CF000FB70BD2DE9F04105460E46D7
:1055A0001746002409E0E20026FA02F2D1B22A19D5
:1055B00090B2FFF7C9FF601CC4B2BC42F3DBBDE888
:1055C000F0812DE9F04107460C460026002509E050
:1055D00036023919491B491E88B2FFF789FF064474
:1055E000681CC5B2A542F3DB3046BDE8F08110B5BA
:1055F000FF20FFF77DFF0446552C01D1002010BD90
:105600005521FF20FFF7A0FFFF20FFF771FF0446A1
:10561000552C01D10020F2E70120F0E770B50646D5
:105620000C46154608E03046721C96B2FFF760FF44
:1056300004F8010B681E85B2002DF4D170BD70B561
:1056400005460C46164606E021782846FFF77CFF03
:10565000681C85B2641C301EA6F101018EB2F3D124
:1056600070BD00001CB50121022009F027F94FF49C
:105670004070009001208DF8040003208DF8050093
:1056800000208DF8060001208DF807006946894842
:1056900008F076FE0120884908608849C1F8A40214
:1056A0001CBD10B58348006820F440208149086083
:1056B0000846006840F48020086001207E49091DEA
:1056C00008607E49C1F8A00204200CF03AFA0020DC
:1056D0007949091D086004200CF033FA002077494D
:1056E000C1F8A00210BD10B57248006820F4402037
:1056F000704908600846006840F480200860002077
:105700006D4908606D49C1F8A40204200CF019FA33
:105710000120694908606949C1F8A40204200CF01D
:1057200010FA10BD10B500246248006820F4402033
:105730006049086008460068086001205E49091D4C
:1057400008600CF0FEF901205C49C1F8A0020CF0E1
:10575000F8F907E0601CC4B2FA2C03DDFFF7C3FFC1
:10576000012010BD54487C3800680028F2D152490D
:10577000086000BFF5E710B500204F4908604D48AC
:10578000006820F440204B4908600846006840F457
:105790008020086000204949C1F8A40202200CF0D2
:1057A000D0F901204449086002200CF0CAF9002019
:1057B0004249C1F8A00210BD10B500203E49086062
:1057C0003C48006820F440203A49086008460068D8
:1057D00040F48020086001203849C1F8A40202206A
:1057E0000CF0AFF901203449086002200CF0A9F94F
:1057F00000203249C1F8A00210BD70B504462D4802
:10580000006820F440202B4908600846006840F4F6
:1058100080200860002028490860002517E0E00982
:105820002549091D08606006040E02200CF089F964
:1058300001202249C1F8A00202200CF082F90020C8
:105840001D49086002200CF07CF9681CC5B2082DC7
:10585000E5DB70BD70B5054600241648006820F4ED
:10586000402014490860084600680860002616E0D9
:1058700000201149086002200CF063F901200F4953
:10588000C1F8A0026006040E0B487C38006808B11D
:10589000601CC4B201200CF054F9701CC6B2082E72
:1058A000E6DB15B9FFF788FF01E0FFF764FF20464C
:1058B00070BD000000040240A082404200804042CF
:1058C00010B502200CF03DF910BD1CB501212220BD
:1058D00008F0F4FF012000908DF804008DF8060018
:1058E0008DF807006946624808F04AFD4FF40060F1
:1058F000009001208DF8040069465E4808F040FDE4
:105900001CBD10B501205C4908605C49C1F88002EB
:10591000FFF7D6FF002058490860FFF7D1FF0020AD
:105920005649C1F88002FFF7CBFF10BD10B500202B
:1059300051490860FFF7C4FF01205049C1F88002B7
:10594000FFF7BEFF01204C490860FFF7B9FF10BD0B
:1059500070B500240025012047490860FFF7B0FF1B
:1059600001204649C1F88002FFF7AAFF09E0601C48
:10597000C4B2FA2C03DDFFF7D9FF012506E0FFF7DB
:105980009FFF3D48803800680028F0D100BF00200C
:105990003B490860FFF794FF284670BD10B5002012
:1059A00035490860FFF78CFF01203449C1F88002B7
:1059B000FFF786FF002032490860FFF781FF0120D2
:1059C0003049C1F8AC02FFF77BFF10BD10B50120D4
:1059D00029490860FFF774FF01202849C1F88002B7
:1059E000FFF76EFF002026490860FFF769FF10BD32
:1059F00070B50446002511E0E0091F490860FFF773
:105A00005FFF01201D49C1F88002FFF759FF002008
:105A10001B4908606006040E681CC5B2082DEBDB4C
:105A200001201549086070BD70B5054600240026A8
:105A300013E06006040E012011490860FFF740FFE3
:105A40001048D0F82C0208B1601CC4B200200C49E8
:105A50000860FFF735FF701CC6B2082EE9DB15B9E8
:105A6000FFF7B4FF01E0FFF799FF204670BD00008B
:105A70000004024000140240AC82424200804042D6
:105A800080824042008042422DE9F04104460E46A9
:105A900017464FF00008FFF734FFB220FFF7A8FFCA
:105AA000FFF756FF2012FFF7A3FFFFF751FFE0B209
:105AB000FFF79EFFFFF74CFF00250BE0705DFFF73F
:105AC00097FFFFF745FF8046B8F1000F00D003E0D5
:105AD000681CC5B2BD42F1DB00BFFFF727FF40469F
